:100000003DC000005FC000005DC000005BC000009C
:1000100059C0000057C0000055C00000C9C1000011
:100020006AC300004FC000004DC000004BC000007C
:1000300049C0000047C0000045C0000043C00000A8
:1000400041C000003FC000003DC000003BC00000B8
:10005000D2C20000ACC2000035C0000033C00000B6
:1000600031C000002FC000002DC000002BC00000D8
:1000700006C30000E0C2000025C0000011241FBE1E
:10008000CFEFD0E1DEBFCDBF14BE88E10FB6F8944C
:1000900080936000109260000FBE11E0A0E0B1E01C
:1000A000E0E6F9E002C005900D92A830B107D9F75B
:1000B00011E0A8E0B1E001C01D92A23CB107E1F758
:1000C00095D14CC49DCFCF93DF93CDB7DEB72797A3
:1000D0000FB6F894DEBF0FBECDBF9DE6998316160E
:1000E00017061CF491E09A8306C06115710529F08A
:1000F00092E09A8361956B8304C093E09A8395E4C0
:100100009B839B819A3011F49BE09B839B819D3064
:1001100011F49EE09B83141615061CF491E09C8359
:1001200006C04115510529F092E09C8341954D830D
:1001300004C093E09C8395E49D839D819A3011F4E3
:100140009BE09D839D819D3011F49EE09D839AE00C
:100150009E831F82BE016F5F7F4FF9D127960FB636
:10016000F894DEBF0FBECDBFDF91CF910895CF933E
:10017000DF93EC01BC0188E091E0E0D3892B71F0C2
:10018000BE0188E091E0E3D3BE0180E0E0D16AE007
:1001900080E0B1D180E0EAD18134E1F7DF91CF9105
:1001A000089540E061E087E290E089D241E061E0BB
:1001B00088E290E084D240E060E084E290E07FD288
:1001C00041E060E085E290E07AD240E061E084E2E4
:1001D00090E075D241E061E085E290E070D240E0CD
:1001E00062E084E290E06BD241E062E085E290E080
:1001F00066D240E063E084E290E061D241E063E0F7
:1002000085E290E05CD240E064E084E290E057D286
:1002100041E064E085E290E052D241E060E087E2B4
:1002200090E04DD240E060E088E290E048D241E0CA
:1002300066E08AE290E043D240E066E08BE290E044
:100240003ED241E067E08AE290E039D240E067E0E8
:100250008BE290E034C241E065E08AE290E02FD288
:1002600041E065E08BE290E02AC240E065E08AE28E
:1002700090E025D287E893E10197F1F700C00000F4
:1002800041E065E08AE290E01AC2CF92DF92EF92FD
:10029000FF920F931F93CF93DF93EB0100912F01F8
:1002A00010E0B8013AD2882777FD8095982FA2D226
:1002B0005BD26DD26B017C01CE01B8012ED28827B2
:1002C00077FD8095982F96D24FD261D220912E0142
:1002D00030E02C153D050CF46901EE27FF27E21BE9
:1002E000F30B261737070CF4B901AB016E177F0724
:1002F0000CF4AF01CE16DF060CF46F01B60181E0FD
:10030000E2DE81E033D18134E1F7DF91CF911F91BB
:100310000F91FF90EF90DF90CF90089526B12C734E
:1003200030E03595279535952795FC01318320835D
:10033000089540B126B1207830E03595279546954F
:100340004695242BFC01318320830895CF93C2E08E
:1003500040E06C2F81E290E0B2D140E06C2F87E268
:1003600090E0ADD141E06C2F82E290E0A8D141E075
:100370006C2F88E290E0A3D1CF5FC83049F7CF91CE
:1003800008954C9BFECF089540E064E08AE290E03F
:1003900096D141E064E08BE290E091D141E063E0EE
:1003A00088E690E08CD141E064E083E790E087C18B
:1003B0001F920F920FB60F9211242F938F939F933A
:1003C0004C990CC028E088E190E00FB6F894A8950D
:1003D000809360000FBE20936000FFCF9F918F91AC
:1003E0002F910F900FBE0F901F90189561E870E04D
:1003F00081E067D0D6DE7894C7DFA8DF2CDF88E7FE
:1004000080932E0181E080932F0160E070E080E016
:1004100090E03BDFB6DF29DF64D1EE24E394F12CDA
:10042000C1E0DFEF0FEF10E087E391E077DF80E3DB
:1004300091E07FDF409130015091310180E090E008
:100440009701082E02C0220F331F0A94E2F72423DB
:100450003523232B11F4DD24D394019687309105A5
:1004600079F78091370180FFD12C81FFD12C82FF59
:10047000D12C83FF0BC0DD2051F01093330100938A
:100480003201109336010093350109C0D12CD0936D
:100490003301C0933201D0933601C093350160918E
:1004A0003501709136018091320190913301EDDE7A
:1004B00081E05CD0813219F480E091E058DEA895AB
:1004C000B3CF813061F06093C400872F90E0009734
:1004D00011F07093C50088E98093C100089560937E
:1004E000CC00872F90E0009711F07093CD0088E941
:1004F0008093C90008958130A9F080919E018F5F9B
:100500008F719091A0019817E1F3E82FF0E0EF557B
:10051000FE4F608380939E018091C1008062809332
:10052000C10008958091C1018F5F8F7190917D010D
:100530009817E1F3E82FF0E0E35AFE4F60838093D1
:10054000C1018091C90080628093C90008951F9302
:10055000CF93DF93182FEB016991662319F0812F58
:10056000CADFFACFDF91CF911F910895813071F0EA
:10057000E0913B0180913A01E817B9F0EF5FEF712C
:10058000E0933B01F0E0E45CFE4F0DC0E0915C01C4
:1005900080919F01E81749F0EF5FEF71E0935C01F4
:1005A000F0E0E258FE4F8081089580E008950F92B8
:1005B0000FB68F939F93EF93FF938091A00190913B
:1005C0009E01891761F08F5F8F71E82FF0E0EF5582
:1005D000FE4F90819093C6008093A00105C080914A
:1005E000C1008F7D8093C100FF91EF919F918F910A
:1005F0000FBE0F9018950F920FB62F938F939F9366
:10060000EF93FF939091C60080913A0120913B01B6
:100610008F5F8F71281739F0E82FF0E0E45CFE4F10
:10062000908380933A01FF91EF919F918F912F9149
:100630000FBE0F9018950F920FB68F939F93EF9365
:10064000FF9380917D019091C101891761F08F5FC7
:100650008F71E82FF0E0E35AFE4F90819093CE0027
:1006600080937D0105C08091C9008F7D8093C90072
:10067000FF91EF919F918F910FBE0F9018950F9260
:100680000FB62F938F939F93EF93FF939091CE008C
:1006900080919F0120915C018F5F8F71281739F045
:1006A000E82FF0E0E258FE4F908380939F01FF9186
:1006B000EF919F918F912F910FBE0F901895FC0194
:1006C000208181E090E0062E01C0880F0A94EAF7AD
:1006D000442319F0282B208308958095822380835A
:1006E0000895F894A895E0E6F0E088E180838DE431
:1006F0008083789408951F920F920FB60F92112461
:10070000B4DD28E088E190E00FB6F894A8958093D6
:1007100060000FBE20936000FFCF97FB072E16F4FA
:10072000009406D077FD08D00BD007FC05D03EF42E
:10073000909581959F4F0895709561957F4F08958D
:10074000AA1BBB1B51E107C0AA1FBB1FA617B707F7
:1007500010F0A61BB70B881F991F5A95A9F7809513
:100760009095BC01CD010895CBD080F09F3740F427
:1007700091110EF4DDC060E070E080E89FE3089521
:1007800026F01B16611D711D811D6FC089C004D02C
:100790006894B111CDC0089599D088F09F5790F01A
:1007A000B92F9927B751A0F0D1F0660F771F881F96
:1007B000991F1AF0BA95C9F712C0B13081F0B7D0BD
:1007C000B1E00895B4C0672F782F8827B85F39F05B
:1007D000B93FCCF3869577956795B395D9F73EF4F5
:1007E00090958095709561957F4F8F4F9F4F08959D
:1007F000E89409C097FB3EF49095809570956195BB
:100800007F4F8F4F9F4F9923A9F0F92F96E9BB2770
:100810009395F695879577956795B795F111F8CFEC
:10082000FAF4BB0F11F460FF1BC06F5F7F4F8F4F57
:100830009F4F16C0882311F096E911C0772321F04D
:100840009EE8872F762F05C0662371F096E8862FE5
:1008500070E060E02AF09A95660F771F881FDAF73C
:10086000880F9695879597F90895882371F47723D3
:1008700021F09850872B762F07C0662311F4992713
:100880000DC09051862B70E060E02AF09A95660FBB
:10089000771F881FDAF7880F9695879597F908953F
:1008A0009F3F31F0915020F4879577956795B795E4
:1008B000880F911D9695879597F9089557FD905843
:1008C000440F551F59F05F3F71F04795880F97FB14
:1008D000991F61F09F3F79F08795089512161306CE
:1008E0001406551FF2CF4695F1DF08C016161706FD
:1008F0001806991FF1CF8695710561050894089532
:10090000E5DFA0F0BEE7B91788F4BB279F3860F495
:100910001616B11D672F782F8827985FF7CF869519
:1009200077956795B11D93959639C8F30895E89426
:10093000BB2766277727CB0197F90895FB01DC01D8
:100940008D91019080190110D9F3990B0895FB0145
:10095000DC0101900D920020E1F70895F894FFCF9B
:0809600043555252454E54006C
:00000001FF
