:100000003DC0000060C000005EC000005CC0000099
:100010005AC0000058C0000020C10000C2C5000046
:10002000C8C6000050C000004EC000004CC0000018
:100030004AC0000021C1000046C0000044C00000CA
:1000400042C0000040C000003EC000003CC00000B4
:1000500030C600000AC6000036C0000034C00000F0
:1000600032C0000030C000002EC000002CC00000D4
:1000700064C600003EC6000026C0000011241FBE5A
:10008000CFEFD0E1DEBFCDBF14BE88E10FB6F8944C
:1000900080936000109260000FBE11E0A0E0B1E01C
:1000A000E6E9F1E102C005900D92A833B107D9F756
:1000B00022E0A8E3B1E001C01D92AB31B207E1F745
:1000C000CAD20C94C9089CCF62E082E040D440E0E0
:1000D00063E088E690E051D640E064E083E790E09A
:1000E0004CD604D4882309F46AC080E691E0D5D4C4
:1000F0008FE391E0F7D4FED38430C9F150F482301D
:10010000B1F058F5813069F720913F0130914001FD
:1001100032C0863009F44EC008F43FC0883709F772
:1001200061E081E014D461E082E011D4DACF209163
:100130003F0130914001C90143E0969587954A956A
:10014000E1F741E08427817024FD02C092E001C004
:1001500090E0892B25FF1EC01BC080913F0190912C
:10016000400136E0969587953A95E1F71FC02091BA
:10017000600130916101C9018170992741E08427B4
:1001800021FD02C042E001C040E0842B22FF02C0FA
:1001900090E001C094E0892B10C0809160019091A3
:1001A000610123E0969587952A95E1F721E0822762
:1001B000817003C089B182958170FAD292CF41E0FB
:1001C00063E088E690E0D9D541E064E083E790E021
:1001D000D4D562E081E0BBC3CF92DF92EF92FF9271
:1001E0000F931F93CF93DF93CCE1D1E052E6E52E3E
:1001F00051E0F52E00E011E06EE7C62E61E0D62E4C
:10020000699179918991999120E030E048E453E433
:1002100015D777D73CD6F701619371937F01F80129
:1002200061917191819191918F0120E030E040E7DF
:1002300053E404D766D72BD6F601619371936F010F
:10024000F1E0C833DF07E1F6DF91CF911F910F9105
:10025000FF90EF90DF90CF9008951F920F920FB60E
:100260000F9211248F9381E0809338018F910F902A
:100270000FBE0F901F9018951F920F920FB60F92FE
:1002800011248F939F93AF93BF93809144019091DA
:100290004501A0914601B09147010196A11DB11DF4
:1002A0008093440190934501A0934601B093470188
:1002B000BF91AF919F918F910F900FBE0F901F90A4
:1002C00018958091440190914501A0914601B0910B
:1002D000470140913B0150913C0160913D0170917B
:1002E0003E0184179507A607B70740F410925901FD
:1002F00010925A0110925B0110925C0180914401AE
:1003000090914501A0914601B091470180933B0136
:1003100090933C01A0933D01B0933E016091440154
:100320007091450180914601909147010895CF92C7
:10033000DF92EF92FF9210925E0110925D01109297
:100340003A011092390180916001909161019C0104
:1003500029703327232B61F487ED90E090933A01C5
:1003600080933901AEDF6E5C7F4F8F4F9F4F6BC024
:100370009C0126703327232BE9F481E09FEF9093B3
:100380003A01809339018091440190914501A091F7
:100390004601B09147010A96A11DB11D80935901F4
:1003A00090935A01A0935B01B0935C0181E080932C
:1003B0005F0153C09C0125703327232B21F081FD61
:1003C00009C083FD09C081E09FEF90933A018093BB
:1003D000390143C080FD03C082E49FEF06C08C70EA
:1003E00099270C9731F08EEB90E090935E0180930B
:1003F0005D01C0905901D0905A01E0905B01F090EE
:100400005C015FDF6C157D058E059F05D8F180913D
:100410006001909161019C012970332729303105D9
:1004200019F087E390E006C086709927069799F047
:1004300084EC9FEF90933A018093390142DF645C32
:100440007F4F8F4F9F4F6093590170935A01809354
:100450005B0190935C0110925F0120913901309112
:100460003A0180915D0190915E01A901480F591FE9
:100470005093430140934201281B390B30934A01AA
:1004800020934901FF90EF90DF90CF900895CF9295
:10049000DF92EF92FF92C0905901D0905A01E09004
:1004A0005B01F0905C010DDF6C157D058E059F05ED
:1004B00008F449C01092590110925A0110925B0140
:1004C00010925C0110923A011092390110925E0173
:1004D00010925D0180915F01813039F520914201D8
:1004E000309143018091490190914A01821793070D
:1004F00054F02817390724F080914101813019F414
:100500008AE69FEF02C086E990E090935E018093B7
:100510005D0180915D0190915E0190934301809314
:1005200042019195819591090AC08FE790E09093DF
:100530003A01809339019093430180934201909353
:100540004A0180934901FF90EF90DF90CF9008958A
:10055000DF92EF92FF920F931F93CF93DF9340911F
:100560003F0150914001CA0181789927892B29F0D8
:10057000CA0182749927892B21F489DF10924801DE
:1005800049C080E090E0C2E6D1E0AEE7B1E020E013
:1005900030E0E0E0F0E0D12C61E070E08B01022E71
:1005A00002C0000F111F0A94E2F704231523012B48
:1005B00051F408811981ED90FC901197D394EE0DC0
:1005C000FF1D800F911F2F5F3F4F229612962730FD
:1005D000310521F7CD2DD0E0BE01FDD39B017093F5
:1005E0005E0160935D01CF01BE01F5D370933A01C6
:1005F00060933901CB01820F931F90934301809345
:100600004201621B730B70934A016093490181E0C0
:1006100080935F01DF91CF911F910F91FF90EF9039
:10062000DF90089510923B0110923C0110923D0121
:1006300010923E01E1E8F0E080818A60808389E0E9
:100640008093890084EC80938800EFE6F0E080815D
:1006500082608083089565E170E080E0C0D2C1D0FF
:1006600091D266D2DFDF7894B7DD2FD180935F011E
:100670001AD18093920134D1809341018AEF809303
:100680008C0134D1811120DD60E070E080E090E0E9
:10069000A8D181E090E09ED01DD165D280E090E0AD
:1006A00099D07DD31092590110925A0110925B019A
:1006B00010925C0180E691E0F0D1C1E0D2E013E05D
:1006C00074EFC72EDD24D394E12CF12C80913801F6
:1006D000813029F480E691E0E0D1109238018FE377
:1006E00091E000D220913F01309140018091600162
:1006F000909161012F37310591F00F9721F017DEAE
:100700001093480103C024DFD0934801109259018F
:1007100010925A0110925B0110925C0109C00F9770
:1007200021F005DEC093480103C0B1DE10924801FC
:100730006091490170914A01809142019091430179
:1007400050D1809148014CD0609144017091450195
:100750008091460190914701A70196014FD3622FE6
:10076000617081E008D0A895B1CF83B18295817086
:1007700091E089270895823051F0833081F08130F3
:10078000B1F441E0611101C040E061E005C041E029
:10079000611101C040E062E085E290E007C041E005
:1007A000611101C040E066E08BE290E0E6C208958E
:1007B000CF93C82F82FB442740F961E085E290E0A7
:1007C000DCD26C2F627082E0D6DF6C2F617083E028
:1007D000CF91D1CF882311F087E001C080E0E8CF2E
:1007E000E7CF40E060E084E290E0C7D241E060E023
:1007F00085E290E0C2D240E061E087E290E0BDD2C5
:1008000041E061E088E290E0B8D240E067E08AE24F
:1008100090E0B3D241E067E08BE290E0AED240E0FE
:1008200060E087E290E0A9D241E060E088E290E0F9
:10083000A4D240E063E084E290E09FD241E063E034
:1008400085E290E09AD240E064E084E290E095D2C4
:1008500041E064E085E290E090D241E066E08AE227
:1008600090E08BD240E066E08BE290E086D241E0FF
:1008700061E084E290E081D240E061E085E290E0D6
:100880007CD241E062E084E290E077D240E062E036
:1008900085E290E072C2CF93C82F80E089DF61E0EB
:1008A0008C2FCF9168CF61DF882311F01B9B07C08D
:1008B0005CDF811106C01B9906C083E0089581E0CA
:1008C000089582E0089584E0089589B1881F8827FB
:1008D000881F0895319902C081E0089582E008954B
:1008E000309902C082E0089581E0089583B1809537
:1008F000817008953ADF811110C01B9904C03099AE
:100900000EC084E00895309902C04F9B0AC0309B0E
:100910000AC04F990AC082E0089586E0089585E0F4
:10092000089583E0089581E0089588E7089540E000
:1009300065E08AE290E021D287E893E10197F1F740
:1009400000C0000041E065E08AE290E016C21F931B
:10095000CF93DF93D82F162FC0E0C11709F43DC005
:10096000D130C1F481E097DF2FE38EE795E021508D
:1009700080409040E1F700C0000082E08CDF2FE370
:100980008EE795E0215080409040E1F700C00000E4
:1009900083E017C083E07FDF2FE38EE795E02150EF
:1009A00080409040E1F700C0000082E074DF2FE358
:1009B0008EE795E0215080409040E1F700C00000B4
:1009C00081E069DF2FE38EE795E021508040904081
:1009D000E1F700C00000CF5FC0CFDF91CF911F9142
:1009E0000895CF92DF92EF92FF920F931F93CF93D0
:1009F000DF93EB010091920110E0B801ECD1882760
:100A000077FD8095982F76D22FD241D26B017C0151
:100A1000CE01B801E0D1882777FD8095982F6AD262
:100A200023D235D220918C0130E02C153D050CF4F9
:100A3000690144275527421B530BC416D5060CF4F5
:100A40006A01261737070CF4B901EB016417750723
:100A50000CF4EA0163E280E0DCD063E280E0D9D00C
:100A600063E280E0D6D06C2D80E0D3D06D2D80E0A5
:100A7000D0D06C2F80E0CDD06D2F80E0CAD060E068
:100A800080E0C7D060E080E0DF91CF911F910F91AF
:100A9000FF90EF90DF90CF90BCC0FC0186B18C73CB
:100AA00090E09595879595958795918380834FEFF5
:100AB0005FEF208131816217730799F04217530766
:100AC00081F086B18C7390E0959587959595879583
:100AD0009183808382E48A95F1F700C0BA01A9016D
:100AE000E8CF089540B126B1207830E035952795BC
:100AF00046954695242BFC0131832083089541E0DF
:100B000062E088E690E039D141E062E08DE690E075
:100B100034D141E063E08DE690E02FD141E064E024
:100B20008DE690E02AD141E065E08DE690E025C1B8
:100B3000CF93C2E040E06C2F81E290E01ED140E014
:100B40006C2F87E290E019D141E06C2F82E290E0B7
:100B500014D141E06C2F88E290E00FD1CF5FC83014
:100B600049F7CF91CCCF813019F44C9BFECF08953B
:100B70002FEF8AE197EB215080409040E1F700C0D1
:100B80000000089540E064E08AE290E0F6D041E0A1
:100B900063E088E690E0F1D041E064E083E790E034
:100BA000ECC01F920F920FB60F9211242F938F93C8
:100BB0009F934C990CC028E088E190E00FB6F89420
:100BC000A895809360000FBE20936000FFCF9F9197
:100BD0008F912F910F900FBE0F901F90189581301D
:100BE00061F06093C400872F90E0009711F070933C
:100BF000C50088E98093C10008956093CC00872FD9
:100C000090E0009711F07093CD0088E98093C900BF
:100C100008958130A9F08091F7018F5F8F719091D5
:100C2000F9019817E1F3E82FF0E0E650FE4F6083FA
:100C30008093F7018091C10080628093C100089584
:100C400080911A028F5F8F719091D6019817E1F30E
:100C5000E82FF0E0EA54FE4F608380931A028091FF
:100C6000C90080628093C90008950F920FB68F93D8
:100C70009F93EF93FF938091F9019091F70189176A
:100C800061F08F5F8F71E82FF0E0E650FE4F9081AA
:100C90009093C6008093F90105C08091C1008F7DBB
:100CA0008093C100FF91EF919F918F910FBE0F90A4
:100CB00018950F920FB62F938F939F93EF93FF93F7
:100CC0009091C60080919301209194018F5F8F7164
:100CD000281739F0E82FF0E0EB56FE4F9083809311
:100CE0009301FF91EF919F918F912F910FBE0F90E4
:100CF00018950F920FB68F939F93EF93FF93809168
:100D0000D60190911A02891761F08F5F8F71E82FD9
:100D1000F0E0EA54FE4F90819093CE008093D6018C
:100D200005C08091C9008F7D8093C900FF91EF912C
:100D30009F918F910FBE0F9018950F920FB62F9322
:100D40008F939F93EF93FF939091CE008091F80142
:100D50002091B5018F5F8F71281739F0E82FF0E0EF
:100D6000E952FE4F90838093F801FF91EF919F919C
:100D70008F912F910FBE0F901895FC01208181E07B
:100D800090E0062E01C0880F0A94EAF7442319F078
:100D9000282B208308958095822380830895F894DA
:100DA000A895E0E6F0E088E180838DE48083789484
:100DB00008951F920F920FB60F921124B8DD28E00C
:100DC00088E190E00FB6F894A895809360000FBE7C
:100DD00020936000FFCF97FB072E16F4009406D0F7
:100DE00077FD08D02DD007FC05D03EF49095819575
:100DF0009F4F0895709561957F4F0895A1E21A2E37
:100E0000AA1BBB1BFD010DC0AA1FBB1FEE1FFF1FAE
:100E1000A217B307E407F50720F0A21BB30BE40BFE
:100E2000F50B661F771F881F991F1A9469F7609545
:100E30007095809590959B01AC01BD01CF010895FF
:100E4000AA1BBB1B51E107C0AA1FBB1FA617B707F0
:100E500010F0A61BB70B881F991F5A95A9F780950C
:100E60009095BC01CD010895CBD080F09F3740F420
:100E700091110EF4DDC060E070E080E89FE308951A
:100E800026F01B16611D711D811D6FC089C004D025
:100E90006894B111CDC0089599D088F09F5790F013
:100EA000B92F9927B751A0F0D1F0660F771F881F8F
:100EB000991F1AF0BA95C9F712C0B13081F0B7D0B6
:100EC000B1E00895B4C0672F782F8827B85F39F054
:100ED000B93FCCF3869577956795B395D9F73EF4EE
:100EE00090958095709561957F4F8F4F9F4F089596
:100EF000E89409C097FB3EF49095809570956195B4
:100F00007F4F8F4F9F4F9923A9F0F92F96E9BB2769
:100F10009395F695879577956795B795F111F8CFE5
:100F2000FAF4BB0F11F460FF1BC06F5F7F4F8F4F50
:100F30009F4F16C0882311F096E911C0772321F046
:100F40009EE8872F762F05C0662371F096E8862FDE
:100F500070E060E02AF09A95660F771F881FDAF735
:100F6000880F9695879597F90895882371F47723CC
:100F700021F09850872B762F07C0662311F499270C
:100F80000DC09051862B70E060E02AF09A95660FB4
:100F9000771F881FDAF7880F9695879597F9089538
:100FA0009F3F31F0915020F4879577956795B795DD
:100FB000880F911D9695879597F9089557FD90583C
:100FC000440F551F59F05F3F71F04795880F97FB0D
:100FD000991F61F09F3F79F08795089512161306C7
:100FE0001406551FF2CF4695F1DF08C016161706F6
:100FF0001806991FF1CF869571056105089408952B
:10100000E5DFA0F0BEE7B91788F4BB279F3860F48E
:101010001616B11D672F782F8827985FF7CF869512
:1010200077956795B11D93959639C8F30895E8941F
:10103000BB2766277727CB0197F908950BD098C077
:1010400089D028F08ED018F0952309F07AC07FC09F
:101050001124EECFB3DFA0F3959FD1F3950F50E0AD
:10106000551F629FF001729FBB27F00DB11D639F5A
:10107000AA27F00DB11DAA1F649F6627B00DA11D00
:10108000661F829F2227B00DA11D621F739FB00DA6
:10109000A11D621F839FA00D611D221F749F332716
:1010A000A00D611D231F849F600D211D822F762FAF
:1010B0006A2F11249F5750408AF0E1F088234AF0AC
:1010C000EE0FFF1FBB1F661F771F881F91505040F8
:1010D000A9F79E3F510570F034C0AACF5F3FECF3F3
:1010E000983EDCF3869577956795B795F795E795E4
:1010F0009F5FC1F7FE2B880F911D9695879597F9F5
:10110000089564DFE0F09E37D8F09639B8F49E3841
:1011100048F4672F782F8827985FF9CF86957795C1
:10112000679593959539D0F3B62FB1706B0F711DFC
:10113000811D20F4879577956795939516CF30CFCD
:1011400077CF97F99F6780E870E060E008959FEFA0
:1011500080EC089500240A9416161706180609064E
:10116000089500240A94121613061406050608951D
:10117000092E0394000C11F4882352F0BB0F40F4A5
:10118000BF2B11F460FF04C06F5F7F4F8F4F9F4FE5
:061190000895F894FFCF62
:10119600CDCCCC3D0000003FF6285C3FCDCC8C3F4B
:1011A600F6285C3F0000003FCDCCCC3DAE4781BF6A
:1011B600AE4761BF52B89EBE0000000052B89E3EC8
:0811C600AE47613FAE47813FD7
:00000001FF
