:100000003AC0000048C0000046C0000044C00000E4
:1000100042C0000040C000003EC000003CC00000E4
:100020003AC0000038C0000036C0000034C00000F4
:1000300032C0000030C000002EC000002CC0000004
:100040002AC0000028C0000067C3000041C30000B0
:1000500022C0000020C000001EC000001CC0000024
:100060001AC0000018C000007402760278027A02FA
:100070007C027E02800211241FBECFEFD8E0DEBFDB
:10008000CDBF11E0A0E0B1E001C01D92AD35B107D8
:10009000E1F75ED2B5C4B4CFECE7F0E080818064D4
:1000A0008083EAE7F0E080818760808380818068D8
:1000B0008083089590917C008F70907F892B80932E
:1000C0007C0080917C00806280937C0080917A002B
:1000D000806480937A0080917A0086FDFCCF8091C5
:1000E00079000895CF93DF9300D000D01F92CDB751
:1000F000DEB793E699838F3F11F08F5F01C08FEFDA
:100100008A836F3F11F06F5F01C06FEF6B831C82BA
:10011000CE010196A3D20F900F900F900F900F90E9
:10012000DF91CF910895EF92FF920F931F93CF939A
:10013000DF9300D000D01F92CDB7DEB78C017B01DA
:1001400065E0CE010196A6D28A8190E0F801918304
:1001500080832981223031F4919581959109918391
:10016000808305C0233019F4F801118210828C813C
:1001700090E0F701918380832B81223031F49195B7
:10018000819591099183808305C0233019F4F7018B
:100190001182108281E489831A82CE0101965ED297
:1001A0000F900F900F900F900F90DF91CF911F91B4
:1001B0000F91FF90EF9008955CD2833621F08D3639
:1001C00021F482E0089581E0089580E00895CF93BE
:1001D000DF93EC0141E01816190674F461E080E049
:1001E000A6D040E062E080E0A2D0AE0161E080E015
:1001F000EBD040E065E010C062E080E098D040E0E5
:1002000061E080E094D0442755274C1B5D0B62E0F1
:1002100080E0DAD040E066E08BE290E0DF91CF91C1
:100220009BC2CF93DF93EC01181619068CF441E0C2
:1002300061E082E07CD040E062E082E078D0AE0114
:1002400061E082E0C1D040E063E08BE290E013C067
:1002500040E061E082E06BD041E062E082E067D0A4
:10026000442755274C1B5D0B62E082E0ADD040E097
:1002700063E085E290E0DF91CF916EC20F931F9310
:10028000CF93DF93D62FC72FBC01882777FD8095AA
:10029000982FC7D226E636E646E65FE326D38ED20F
:1002A000693C710514F068EC70E00D2F1C2F093CBF
:1002B000110514F008EC10E0CB0168332FEF720742
:1002C00014F488E39FEF83DFC80108332FEF120790
:1002D00014F488E39FEFDF91CF911F910F91A1CF8D
:1002E000CF93DF93C82FD62F41E063E08AE290E0FE
:1002F00033D241E065E08AE290E02ED241E066E050
:100300008AE290E029D241E063E084E290E024D2E6
:100310004D2F6C2F80E00FD14D2F6C2F82E00BD131
:1003200060E070E080E090E0DF91CF91A7CFCF93C5
:10033000C42F8130D1F018F0823069F143C06130B0
:1003400041F440E066E084E490E006D24C2F67E0A0
:1003500009C06230B9F540E064E084E490E0FCD18B
:100360004C2F65E084E490E02BC0613041F440E024
:1003700066E080E890E0F0D14C2F67E009C0623081
:1003800009F540E064E080E890E0E6D14C2F65E0BC
:1003900080E890E015C0613041F440E066E080EB19
:1003A00090E0DAD14C2F67E009C0623059F440E0A8
:1003B00064E080EB90E0D0D14C2F65E080EB90E0E2
:1003C000CF91CAC1CF910895811108C0613011F455
:1003D00047BD08956230C1F448BD0895813049F4A5
:1003E000613011F0623081F45093890040938800AD
:1003F0000895823049F4613019F44093B3000895B0
:10040000623011F44093B4000895643091F038F4F0
:10041000613061F0623099F495B592600FC066303A
:1004200059F0673061F495B5956008C095B5916055
:1004300005C095B5936002C095B5946095BD94B51F
:10044000906A94BD813019F484B5836007C082300E
:1004500031F484B58D7F84BD84B5816084BD0895F9
:100460006430A9F040F4613071F06230C9F49091C9
:100470008100926013C0663071F0673089F490910A
:10048000810095600BC090918100916007C09091B0
:100490008100936003C090918100946090938100EB
:1004A00090918000906A90938000813021F4809137
:1004B0008100886005C0823051F480918100877F7F
:1004C00080938100809180008160809380000895F6
:1004D000462F50E0FA013197E730F105A0F4EC5CCB
:1004E000FF4F9091B10064C191600BC0926009C050
:1004F000936007C0946005C0956003C0966001C01A
:1005000097609093B1009091B000906A9093B00082
:10051000813021F48091B00083600AC0823051F4B0
:100520008091B0008D7F8093B0008091B000816099
:100530008093B0000895982F862F642F911101C0E9
:1005400064CF913009F48CCF923009F4C1CF089573
:1005500062E082E0C5DE87E690E05ED078949CDDC4
:1005600085E00CD160E070E080E090E087DE81E41F
:1005700060D0109207011092040181E09BDD90E0B1
:10058000909303018093020180E094DD90E09093CA
:1005900018018093170110DE80930801813031F437
:1005A00060911701809102019DDD08C0823031F415
:1005B00065E071E080E091E0B6DDA89580910201F0
:1005C00090910301883C9105ACF4809117019091C2
:1005D0001801883C910574F4609105017091060141
:1005E000809100019091010149DE10920401109266
:1005F0000701C3CF60E070E080E090E03FDE81E281
:1006000018D080910201885C8093070180911701C6
:10061000885C80930401B1CF8093C400292F30E01F
:100620002115310511F09093C50088E98093C10030
:10063000089590913B019F5F9F7120913C01291784
:10064000E1F3E92FF0E0E35CFE4F808390933B0100
:100650008091C10080628093C1000895CF93DF93A1
:10066000EC018991882311F0E4DFFBCFDF91CF917A
:100670000895E0911A0180911901E81749F0EF5FA0
:10068000EF71E0931A01F0E0E55EFE4F808108957E
:1006900080E008950F931F93CF93DF931F92CDB700
:1006A000DEB78C01615049F06983E3DFF801808394
:1006B00069818823C9F38A3041F4F80110820F90D0
:1006C000DF91CF911F910F9108950F5F1F4FEACFD8
:1006D0000F920FB68F939F93EF93FF9380913C01FE
:1006E00090913B01891761F08F5F8F71E82FF0E0E7
:1006F000E35CFE4F90819093C60080933C0105C05F
:100700008091C1008F7D8093C100FF91EF919F91F7
:100710008F910FBE0F9018950F920FB62F938F9356
:100720009F93EF93FF939091C600809119012091C0
:100730001A018F5F8F71281739F0E82FF0E0E55E1E
:10074000FE4F908380931901FF91EF919F918F91BC
:100750002F910FBE0F901895FC01208181E090E051
:10076000062E01C0880F0A94EAF7442319F0282BBB
:10077000208308958095822380830895F8941092B1
:100780006000A89598E19093600083FF02C098E212
:1007900001C098E08770892B28E130E00FB6F8940B
:1007A000A895209360000FBE809360007894089510
:1007B000EE0FFF1F0590F491E02D099404D068948A
:1007C000B1118DC0089570D088F09F5790F0B92F67
:1007D0009927B751A0F0D1F0660F771F881F991F96
:1007E0001AF0BA95C9F712C0B13081F077D0B1E0F4
:1007F000089574C0672F782F8827B85F39F0B93F04
:10080000CCF3869577956795B395D9F73EF4909597
:100810008095709561957F4F8F4F9F4F0895E89415
:1008200009C097FB3EF490958095709561957F4F38
:100830008F4F9F4F9923A9F0F92F96E9BB279395E6
:10084000F695879577956795B795F111F8CFFAF4F6
:10085000BB0F11F460FF1BC06F5F7F4F8F4F9F4F27
:1008600016C0882311F096E911C0772321F09EE885
:10087000872F762F05C0662371F096E8862F70E0EB
:1008800060E02AF09A95660F771F881FDAF7880FC5
:100890009695879597F9089557FD9058440F551FE1
:1008A00059F05F3F71F04795880F97FB991F61F0F2
:1008B0009F3F79F087950895121613061406551F69
:1008C000F2CF4695F1DF08C0161617061806991FD5
:1008D000F1CF86957105610508940895E894BB27CA
:1008E00066277727CB0197F908950BD078C069D098
:1008F00028F06ED018F0952309F05AC05FC011247B
:10090000EECFCADFA0F3959FD1F3950F50E0551FAE
:10091000629FF001729FBB27F00DB11D639FAA2754
:10092000F00DB11DAA1F649F6627B00DA11D661FA3
:10093000829F2227B00DA11D621F739FB00DA11DC4
:10094000621F839FA00D611D221F749F3327A00D7E
:10095000611D231F849F600D211D822F762F6A2F1A
:1009600011249F5750408AF0E1F088234AF0EE0F9F
:10097000FF1FBB1F661F771F881F91505040A9F7AC
:100980009E3F510570F014C0AACF5F3FECF3983E34
:10099000DCF3869577956795B795F795E7959F5F13
:1009A000C1F7FE2B880F911D9695879597F90895AD
:1009B00097F99F6780E870E060E008959FEF80EC12
:1009C000089500240A9416161706180609060895B5
:1009D00000240A9412161306140605060895092E1B
:1009E0000394000C11F4882352F0BB0F40F4BF2B8A
:1009F00011F460FF04C06F5F7F4F8F4F9F4F0895CA
:040A0000F894FFCF98
:00000001FF
