:100000003DC0000054C0000052C0000050C00000BD
:100010004EC000004CC000004AC00000B5C0000047
:10002000CEC1000044C0000042C0000040C000003B
:100030003EC000003CC000003AC0000038C00000D4
:1000400036C0000034C0000032C0000030C00000E4
:1000500040C100001AC100002AC0000028C00000F2
:1000600026C0000024C0000022C0000020C0000004
:1000700074C100004EC100001AC0000011241FBE50
:10008000CFEFD0E1DEBFCDBF14BE88E10FB6F8944C
:1000900080936000109260000FBE11E0A0E0B1E01C
:1000A00001C01D92AA38B107E1F78CD0ABC2A8CF2E
:1000B00040E065E08AE290E070D187E893E1019743
:1000C000F1F700C0000041E065E08AE290E065C120
:1000D000CF92DF92EF92FF920F931F93CF93DF9314
:1000E000EB010091010110E0B8017BD1882777FD79
:1000F0008095982FE3D19CD1AED16B017C01CE01CC
:10010000B8016FD1882777FD8095982FD7D190D1EE
:10011000A2D12091000130E02C153D050CF46901BD
:1001200044275527421B530BC416D5060CF46A010D
:10013000261737070CF4B901EB01641775070CF4A7
:10014000EA0163E281E075D063E281E072D063E2AC
:1001500081E06FD06C2D81E06CD06D2D81E069D095
:100160006C2F81E066D06D2F81E063D060E081E08C
:1001700060D060E081E0DF91CF911F910F91FF90FF
:10018000EF90DF90CF9055C01F920F920FB60F9255
:1001900011242F938F939F934C990CC028E088E1F2
:1001A00090E00FB6F894A895809360000FBE20935E
:1001B0006000FFCF9F918F912F910F900FBE0F90F6
:1001C0001F90189565E170E081E019D0789411E0F6
:1001D000C0E0D0E0CE018D599F4F873C910508F0DB
:1001E0001195C10FD11D17FDDA95BE01CE0170DF4B
:1001F00087EA91E60197F1F700C00000EBCF81306C
:1002000061F06093C400872F90E0009711F0709325
:10021000C50088E98093C10008956093CC00872FC2
:1002200090E0009711F07093CD0088E98093C900A9
:1002300008958130A9F0809166018F5F8F71909150
:1002400068019817E1F3E82FF0E0E759FE4F60836B
:10025000809366018091C10080628093C1000895FF
:10026000809189018F5F8F71909145019817E1F31B
:10027000E82FF0E0EB5DFE4F608380938901809171
:10028000C90080628093C90008950F920FB68F93C2
:100290009F93EF93FF938091680190916601891776
:1002A00061F08F5F8F71E82FF0E0E759FE4F90818A
:1002B0009093C6008093680105C08091C1008F7D36
:1002C0008093C100FF91EF919F918F910FBE0F908E
:1002D00018950F920FB62F938F939F93EF93FF93E1
:1002E0009091C60080910201209103018F5F8F7170
:1002F000281739F0E82FF0E0EC5FFE4F90838093F1
:100300000201FF91EF919F918F912F910FBE0F905E
:1003100018950F920FB68F939F93EF93FF93809151
:10032000450190918901891761F08F5F8F71E82FE6
:10033000F0E0EB5DFE4F90819093CE0080934501FD
:1003400005C08091C9008F7D8093C900FF91EF9116
:100350009F918F910FBE0F9018950F920FB62F930C
:100360008F939F93EF93FF939091CE0080916701BD
:10037000209124018F5F8F71281739F0E82FF0E06A
:10038000EA5BFE4F908380936701FF91EF919F910D
:100390008F912F910FBE0F901895FC01208181E065
:1003A00090E0062E01C0880F0A94EAF7442319F062
:1003B000282B2083089580958223808308951F929F
:1003C0000F920FB60F92112473DE28E088E190E0BF
:1003D0000FB6F894A895809360000FBE209360003C
:1003E000FFCF97FB072E16F4009406D077FD08D0B8
:1003F0000BD007FC05D03EF4909581959F4F089552
:10040000709561957F4F0895AA1BBB1B51E107C0F2
:10041000AA1FBB1FA617B70710F0A61BB70B881F94
:10042000991F5A95A9F780959095BC01CD01089523
:10043000CBD080F09F3740F491110EF4DDC060E026
:1004400070E080E89FE3089526F01B16611D711D82
:10045000811D6FC089C004D06894B111CDC00895CA
:1004600099D088F09F5790F0B92F9927B751A0F0F5
:10047000D1F0660F771F881F991F1AF0BA95C9F738
:1004800012C0B13081F0B7D0B1E00895B4C0672F89
:10049000782F8827B85F39F0B93FCCF386957795E8
:1004A0006795B395D9F73EF49095809570956195D1
:1004B0007F4F8F4F9F4F0895E89409C097FB3EF4FC
:1004C00090958095709561957F4F8F4F9F4F9923A1
:1004D000A9F0F92F96E9BB279395F695879577951F
:1004E0006795B795F111F8CFFAF4BB0F11F460FFDF
:1004F0001BC06F5F7F4F8F4F9F4F16C0882311F037
:1005000096E911C0772321F09EE8872F762F05C04A
:10051000662371F096E8862F70E060E02AF09A95E5
:10052000660F771F881FDAF7880F9695879597F9DA
:100530000895882371F4772321F09850872B762F24
:1005400007C0662311F499270DC09051862B70E0E7
:1005500060E02AF09A95660F771F881FDAF7880FF8
:100560009695879597F908959F3F31F0915020F423
:10057000879577956795B795880F911D969587957F
:1005800097F9089557FD9058440F551F59F05F3F54
:1005900071F04795880F97FB991F61F09F3F79F0A5
:1005A00087950895121613061406551FF2CF469527
:1005B000F1DF08C0161617061806991FF1CF8695A9
:1005C0007105610508940895E5DFA0F0BEE7B9174D
:1005D00088F4BB279F3860F41616B11D672F782F5B
:1005E0008827985FF7CF869577956795B11D939586
:1005F0009639C8F30895E894BB2766277727CB017F
:0806000097F90895F894FFCF6B
:00000001FF
