:100000003DC000005FC000005DC000005BC000009C
:1000100059C0000057C0000055C00000B3C1000027
:1000200026C400004FC000004DC000004BC00000BF
:1000300049C0000047C0000045C0000043C00000A8
:1000400041C000003FC000003DC000003BC00000B8
:100050008EC3000068C3000035C0000033C000003C
:1000600031C000002FC000002DC000002BC00000D8
:10007000C2C300009CC3000025C0000011241FBEA5
:10008000CFEFD0E1DEBFCDBF14BE88E10FB6F8944C
:1000900080936000109260000FBE11E0A0E0B1E01C
:1000A000E8EBFAE002C005900D92AC31B107D9F748
:1000B00011E0ACE1B1E001C01D92A63BB107E1F750
:1000C0007FD2F8C49DCF41E0811101C040E061E0E2
:1000D00085E290E0B0C3823031F0833061F081304E
:1000E00091F4862FF0CF41E0611101C040E062E061
:1000F00085E290E007C041E0611101C040E066E0A8
:100100008BE290E098C30895CF93C82F8470DBDF13
:100110006C2F627082E0DFDF6C2F617083E0CF9123
:10012000DACF40E060E084E290E085D341E060E037
:1001300085E290E080D340E061E087E290E07BD30D
:1001400041E061E088E290E076D340E067E08AE257
:1001500090E071D341E067E08BE290E06CD340E047
:1001600060E087E290E067D341E060E088E290E001
:1001700062D340E063E084E290E05DD341E063E07D
:1001800085E290E058D340E064E084E290E053D30D
:1001900041E064E085E290E04ED341E066E08AE22F
:1001A00090E049D340E066E08BE290E044D341E048
:1001B00061E084E290E03FD340E061E085E290E0DE
:1001C0003AD341E062E084E290E035D340E062E07F
:1001D00085E290E030C31C9B02C01B9906C01C99AD
:1001E00006C01B9B06C082E0089584E0089583E06A
:1001F000089581E0089540E065E08AE290E01BD335
:1002000087E893E10197F1F700C0000041E065E065
:100210008AE290E010C3CF92DF92EF92FF920F93A9
:100220001F93CF93DF93EB0100911D0110E0B80104
:1002300030D3882777FD8095982F98D351D363D3F7
:100240006B017C01CE01B80124D3882777FD80950E
:10025000982F8CD345D357D320911C0130E02C1517
:100260003D050CF4690144275527421B530BC41666
:10027000D5060CF46A01261737070CF4B901EB0117
:10028000641775070CF4EA0163E280E020D263E2B0
:1002900080E01DD263E280E01AD26C2D80E017D29C
:1002A0006D2D80E014D26C2F80E011D26D2F80E094
:1002B0000ED260E080E00BD260E080E0DF91CF9171
:1002C0001F910F91FF90EF90DF90CF9000C2FC0143
:1002D00086B18C7390E095958795959587959183D8
:1002E00080834FEF5FEF208131816217730779F0D0
:1002F0004217530761F086B18C7390E0959587950E
:100300009595879591838083BA01A901ECCF0895D3
:1003100040B126B1207830E0359527954695469531
:10032000242BFC01318320830895CF93C2E040E069
:100330006C2F81E290E07FD240E06C2F87E290E06A
:100340007AD241E06C2F82E290E075D241E06C2FCE
:1003500088E290E070D2CF5FC83049F7CF9108951E
:100360004C9BFECF089540E064E08AE290E063D2C7
:1003700041E063E088E690E05ED241E064E083E73C
:1003800090E059C21F920F920FB60F9211242F9333
:100390008F939F934C990CC028E088E190E00FB6B2
:1003A000F894A895809360000FBE20936000FFCF63
:1003B0009F918F912F910F900FBE0F901F901895C6
:1003C00080912B018230A1F42091220130912301F0
:1003D0008091250190912601281739071CF08DE79F
:1003E00090E002C083E89FEF90932A018093290157
:1003F0008091290190912A019093230180932201F9
:1004000091958195910990932601809325010895F6
:10041000DF92EF92FF920F931F93CF93DF93409160
:10042000200150912101CA0181789927892B29F057
:10043000CA0182749927892B29F4C2DF83E0809353
:1004400024014CC080E090E0CEE0D1E0A0E0B1E03B
:1004500020E030E0E0E0F0E0D12C61E070E08B01E2
:10046000022E02C0000F111F0A94E2F70423152385
:10047000012B51F408811981ED90FC901197D394D0
:10048000EE0DFF1D800F911F2F5F3F4F229612969A
:100490002730310521F7CD2DD0E0BE01FAD19B01E7
:1004A00070932A0160932901CF01BE01F2D17093AC
:1004B0001F0160931E018091270190912801860FF2
:1004C000971FAC01420F531F509323014093220109
:1004D000821B930B9093260180932501DF91CF918E
:1004E0001F910F91FF90EF90DF90089580912C0164
:1004F00090912D019C0121703327AC014970552743
:10050000452B59F42AEF30E0309326012093250142
:10051000309323012093220128C081FD0DC082FD6C
:100520000EC046E05FEF50932601409325015093A3
:1005300023014093220117C02115310539F443E806
:100540005FEF50932A01409329010DC09C012C704C
:1005500033272C30310581F02DE730E030932A012C
:100560002093290109C0232B39F482FD05C028DF1F
:1005700083E08093240108958A709927892BB9F329
:1005800060912701709128012091290130912A0161
:10059000CB01820F931F9093230180932201621B52
:1005A000730B709326016093250135DE2FE788E3F6
:1005B00091E0215080409040E1F700C00000089594
:1005C00065E170E080E069D0ACDD7894CCDEADDE32
:1005D00082E080932B01FFDD80931D018AEF8093E1
:1005E0001C0186E990E090932801809327011092E6
:1005F0001F0110921E0110922A011092290160E041
:1006000070E080E090E007DE61E081E064DD61E0C1
:1006100082E061DD61E083E05EDDA2DE60E081E03A
:100620005ADD60E082E057DD60E083E054DD15D103
:10063000C3E0D2E011E08CE291E049DE80E291E09B
:1006400067DE209120013091210180912C01909151
:100650002D012F37310551F00F9721F047DF109210
:1006600024010DC0D5DE1093240109C00F9721F09D
:100670003DDFD093240103C0A3DEC0932401609129
:100680002501709126018091220190912301C3DD03
:100690008091240139DDA895CECF813061F060933F
:1006A000C400872F90E0009711F07093C50088E98F
:1006B0008093C10008956093CC00872F90E000974D
:1006C00011F07093CD0088E98093C90008958130BE
:1006D000A9F0809192018F5F8F719091940198178A
:1006E000E1F3E82FF0E0EB56FE4F60838093920138
:1006F0008091C10080628093C10008958091B5010E
:100700008F5F8F71909171019817E1F3E82FF0E0FE
:10071000EF5AFE4F60838093B5018091C9008062DB
:100720008093C90008950F920FB68F939F93EF9314
:10073000FF938091940190919201891761F08F5FEE
:100740008F71E82FF0E0EB56FE4F90819093C6003A
:100750008093940105C08091C1008F7D8093C1007A
:10076000FF91EF919F918F910FBE0F9018950F926F
:100770000FB62F938F939F93EF93FF939091C600A3
:1007800080912E0120912F018F5F8F71281739F0F2
:10079000E82FF0E0E05DFE4F908380932E01FF9103
:1007A000EF919F918F912F910FBE0F9018950F92FF
:1007B0000FB68F939F93EF93FF9380917101909168
:1007C000B501891761F08F5F8F71E82FF0E0EF5A64
:1007D000FE4F90819093CE008093710105C080916F
:1007E000C9008F7D8093C900FF91EF919F918F91F8
:1007F0000FBE0F9018950F920FB62F938F939F9364
:10080000EF93FF939091CE0080919301209150013E
:100810008F5F8F71281739F0E82FF0E0EE58FE4F08
:10082000908380939301FF91EF919F918F912F91EE
:100830000FBE0F901895FC01208181E090E0062EFC
:1008400001C0880F0A94EAF7442319F0282B20836B
:1008500008958095822380830895F894A895E0E612
:10086000F0E088E180838DE48083789408951F927E
:100870000F920FB60F921124BEDC28E088E190E0C1
:100880000FB6F894A895809360000FBE2093600087
:10089000FFCF97FB072E16F4009406D077FD08D003
:1008A0000BD007FC05D03EF4909581959F4F08959D
:1008B000709561957F4F0895AA1BBB1B51E107C03E
:1008C000AA1FBB1FA617B70710F0A61BB70B881FE0
:1008D000991F5A95A9F780959095BC01CD0108956F
:1008E000CBD080F09F3740F491110EF4DDC060E072
:1008F00070E080E89FE3089526F01B16611D711DCE
:10090000811D6FC089C004D06894B111CDC0089515
:1009100099D088F09F5790F0B92F9927B751A0F040
:10092000D1F0660F771F881F991F1AF0BA95C9F783
:1009300012C0B13081F0B7D0B1E00895B4C0672FD4
:10094000782F8827B85F39F0B93FCCF38695779533
:100950006795B395D9F73EF490958095709561951C
:100960007F4F8F4F9F4F0895E89409C097FB3EF447
:1009700090958095709561957F4F8F4F9F4F9923EC
:10098000A9F0F92F96E9BB279395F695879577956A
:100990006795B795F111F8CFFAF4BB0F11F460FF2A
:1009A0001BC06F5F7F4F8F4F9F4F16C0882311F082
:1009B00096E911C0772321F09EE8872F762F05C096
:1009C000662371F096E8862F70E060E02AF09A9531
:1009D000660F771F881FDAF7880F9695879597F926
:1009E0000895882371F4772321F09850872B762F70
:1009F00007C0662311F499270DC09051862B70E033
:100A000060E02AF09A95660F771F881FDAF7880F43
:100A10009695879597F908959F3F31F0915020F46E
:100A2000879577956795B795880F911D96958795CA
:100A300097F9089557FD9058440F551F59F05F3F9F
:100A400071F04795880F97FB991F61F09F3F79F0F0
:100A500087950895121613061406551FF2CF469572
:100A6000F1DF08C0161617061806991FF1CF8695F4
:100A70007105610508940895E5DFA0F0BEE7B91798
:100A800088F4BB279F3860F41616B11D672F782FA6
:100A90008827985FF7CF869577956795B11D9395D1
:100AA0009639C8F30895E894BB2766277727CB01CA
:080AB00097F90895F894FFCFB7
:100AB80005001E004600640046001E0005006AFF8F
:0C0AC8007EFFBAFF00004600820096008E
:00000001FF
