:100000000C9435000C945D000C945D000C945D0024
:100010000C945D000C945D000C945D000C945D00EC
:100020000C945D000C945D000C945D000C945D00DC
:100030000C945D000C945D000C945D000C945D00CC
:100040000C94A0020C945D000C94FB010C942D0206
:100050000C945D000C945D000C945D000C945D00AC
:100060000C945D000C945D005D0211241FBECFEF67
:10007000D8E0DEBFCDBF11E0A0E0B1E0EEE9F6E0F0
:1000800002C005900D92A031B107D9F721E0A0E19F
:10009000B1E001C01D92A63BB207E1F710E0CAE64D
:1000A000D0E004C02297FE010E944903C836D10760
:1000B000C9F70E94EC010C944D030C94000026E05B
:1000C00040E052EC61E070E080E191E00C9461016D
:1000D00080E191E00E947E0002977CF080E191E057
:1000E0000E949700E0911001F09111010190F081C0
:1000F000E02D682F80E191E009940895FC01818D45
:10010000228D90E0805C9F4F821B91098F7399270D
:100110000895FC01918D828D981731F0828DE80F42
:10012000F11D858D90E008958FEF9FEF0895FC01FC
:10013000918D828D981761F0828DDF01A80FB11D1E
:100140005D968C91928D9F5F9F73928F90E0089542
:100150008FEF9FEF089583E592E0892B49F080E0CF
:1001600090E0892B29F00E94530281110C94000029
:100170000895FC01848DDF01A80FB11DA35ABF4F64
:100180002C91848D90E001968F739927848FA68996
:10019000B7892C93A089B1898C9180648C93938DBD
:1001A000848D981306C00288F389E02D80818F7DAD
:1001B00080830895CF93DF93EC01888D8823C9F065
:1001C000EA89FB89808185FD05C0A889B9898C9160
:1001D00086FD0FC00FB607FCF5CF808185FFF2CFFB
:1001E000A889B9898C9185FFEDCFCE010E94B90015
:1001F000E7CFDF91CF910895CF92DF92FF920F93D7
:100200001F93CF93DF931F92CDB7DEB76C0181E0D0
:10021000D60158968C9358975B969C915B975C9609
:100220008C915C97981307C05096ED91FC91519773
:10023000808185FD2EC0F601038D10E00F5F1F4FFA
:100240000F731127F02EF601848DF81211C00FB62E
:1002500007FCF9CFD6015096ED91FC915197808122
:1002600085FFF1CFC60169830E94B9006981EBCF98
:10027000838DE80FF11DE35AFF4F6083D6015B9633
:100280000C935B975296ED91FC915397808180621D
:100290000CC0D6015696ED91FC915797608350960D
:1002A000ED91FC91519780818064808381E090E0A2
:1002B0000F90DF91CF911F910F91FF90DF90CF9022
:1002C0000895BF92CF92DF92EF92FF92CF93DF9388
:1002D000EC016A017B01B22EE889F98982E0808312
:1002E000411581EE580761057105A1F060E079E0E4
:1002F0008DE390E0A70196010E942503215031096A
:10030000410951095695479537952795211580E163
:10031000380798F0E889F989108260E874E88EE17E
:1003200090E0A70196010E9425032150310941095F
:1003300051095695479537952795EC85FD8530836E
:10034000EE85FF852083188EEC89FD89B082EA89CD
:10035000FB89808180618083EA89FB898081886054
:100360008083EA89FB89808180688083EA89FB89B0
:1003700080818F7D8083DF91CF91FF90EF90DF9020
:10038000CF90BF900895CF92DF92EF92FF920F939C
:100390001F93CF93DF936C017A01EB01E60EF71EFA
:1003A00000E010E0CE15DF0561F06991D601ED9116
:1003B000FC910190F081E02DC6010995080F191FED
:1003C000F1CFC801DF91CF911F910F91FF90EF9076
:1003D000DF90CF90089508950E94EA020E94EB01F9
:1003E0000E945F00CBEAD0E00E9468002097E1F312
:1003F0000E94AB00F9CF1F920F920FB60F921124FB
:100400002F938F939F93EF93FF93E0912001F091AF
:1004100021018081E0912601F091270182FD12C027
:100420009081809129018F5F8F7320912A0182171B
:1004300051F0E0912901F0E0E05FFE4F958F80934D
:10044000290101C08081FF91EF919F918F912F91A0
:100450000F900FBE0F901F9018951F920F920FB61E
:100460000F9211242F933F934F935F936F937F933A
:100470008F939F93AF93BF93EF93FF9380E191E0AE
:100480000E94B900FF91EF91BF91AF919F918F9121
:100490007F916F915F914F913F912F910F900FBE80
:1004A0000F901F90189580E191E00E947E0021E05E
:1004B000892B09F420E0822F0895109213011092E5
:1004C000120188EE93E0A0E0B0E0809314019093D5
:1004D0001501A0931601B093170184E091E0909369
:1004E00011018093100185EC90E090931D018093A1
:1004F0001C0184EC90E090931F0180931E0180EC1E
:1005000090E0909321018093200181EC90E0909302
:1005100023018093220182EC90E090932501809347
:10052000240186EC90E0909327018093260110929D
:10053000290110922A0110922B0110922C0108958A
:100540001F920F920FB60F9211242F933F938F9308
:100550009F93AF93BF938091AE019091AF01A09113
:10056000B001B091B1013091AD0123E0230F2D37DF
:1005700020F40196A11DB11D05C026E8230F0296A7
:10058000A11DB11D2093AD018093AE019093AF01E9
:10059000A093B001B093B1018091B2019091B301E9
:1005A000A091B401B091B5010196A11DB11D809338
:1005B000B2019093B301A093B401B093B501BF9180
:1005C000AF919F918F913F912F910F900FBE0F9000
:1005D0001F901895789484B5826084BD84B581603D
:1005E00084BD85B5826085BD85B5816085BDEEE63B
:1005F000F0E0808181608083E1E8F0E0108280811A
:1006000082608083808181608083E0E8F0E0808187
:1006100081608083E1EBF0E0808184608083E0EBA7
:10062000F0E0808181608083EAE7F0E0808184608F
:1006300080838081826080838081816080838081EB
:10064000806880831092C1000895A1E21A2EAA1B2F
:10065000BB1BFD010DC0AA1FBB1FEE1FFF1FA21772
:10066000B307E407F50720F0A21BB30BE40BF50B6F
:10067000661F771F881F991F1A9469F760957095F8
:10068000809590959B01AC01BD01CF010895EE0FBF
:0E069000FF1F0590F491E02D0994F894FFCF20
:10069E0000000000FC00C3017E0097008900DA0014
:00000001FF
