:1000000033C0000041C000003FC000003DC0000000
:100010003BC0000039C0000037C0000035C0000000
:1000200033C0000031C000002FC000002DC0000010
:100030002BC0000029C0000027C0000025C0000020
:1000400023C0000021C0000045C000001FC0000008
:100050001BC0000019C0000017C0000015C0000040
:1000600013C0000011C0000011241FBECFEFD8E064
:10007000DEBFCDBF11E0A0E0B1E001C01D92A4340D
:10008000B107E1F702D046C0BBCFFFCF0F920FB64A
:100090008F939F93EF93FF9380912301909122017F
:1000A000891761F08F5F8F71E82FF0E0EC5DFE4FF4
:1000B00090819093C6008093230105C08091C10078
:1000C0008F7D8093C100FF91EF919F918F910FBE23
:1000D0000F9018950F920FB62F938F939F93EF93D6
:1000E000FF939091C60080910001209101018F5FE4
:1000F0008F71281739F0E82FF0E0EE5FFE4F908304
:1001000080930001FF91EF919F918F912F910FBEEE
:080110000F901895F894FFCF41
:00000001FF
